:020000040000FA
:1000000083169F019F178501051407171930990062
:100010002430980083128030980081309F001F1593
:1000200083161E088312A700A71BA917271B2917D1
:10003000A70DA70D2708B00021204720A8004420C5
:100040000F2803101030B400B101B201B301B00D9C
:10005000A90DB30DB20DB10DB40B2F280034333000
:100060008400392032308400392031308400392036
:10007000272803300007A700A719800030300007A9
:10008000A700A71B80000034280899000800320848
:100090000F39820700348034C034E034F034F8344F
:1000A000FC34FE34FF34FF340530A200A00B562888
:0A00B000A10B5628A20B56280800E9
:00000001FF
