:020000040000FA
:100000008316FF309F00880185010516851683122F
:100010008801A301051E2120851E24202308053CFC
:100020000319A3012308FF3C03191E203120880077
:1000300005083039031927203D200A280430A30081
:100040000800851AA30A0800051AA30308008801FE
:100050003D20F93088003D2005083039031D080097
:1000600027282308820776347934383438343F34EB
:100070006D347D3407347F346F340230A200A00B1E
:0C0080003F28A10B3F28A20B3F280800DE
:00000001FF
