:020000040000FA
:10000000831641309F019F178501051486018312D5
:10001000A401A501A60141309F000F200D28A401D5
:10002000A501A6011F153B2156201920051E080019
:100030000F28E8202321262120300521203005210A
:100040002030052120300521413005212F300521A8
:10005000443005212030052156300521613005212D
:100060006C300521753005216530052129212030AE
:1000700005212030052120300521203005212608CA
:10008000313E05212508313E05212408313E052158
:10009000203005216D300521563005212030052105
:1000A00020300521203005213B21080083161E0841
:1000B0008312A700A71B8320D220DD20271B8C20C2
:1000C000D220DD20A71A9A20D220DD20271AA620D0
:1000D000D220DD20A719B120D220DD202719B7209A
:1000E000D220DD20A718BF20D220DD202718C8206D
:1000F000D220DD209E18CD20D220DD201E18D02059
:10010000D220DD200800A60AA60AA60AA60AA60A88
:10011000A50AA40AA40A0800A60AA60AA50AA50A0E
:10012000A50AA50AA50AA40AA40AA40AA40AA40A5C
:10013000A40A0800A60AA50AA50AA40AA40AA40AF1
:10014000A40AA40AA40AA40AA40A0800A50AA50AE3
:10015000A50AA50AA50AA50AA40AA40AA40AA40A2B
:100160000800A50AA50AA50AA40AA40A0800A50A67
:10017000A40AA40AA40AA40AA40AA40A0800A40AB5
:10018000A40AA40AA40AA40AA40AA40AA40A0800A5
:10019000A40AA40AA40AA40A0800A40AA40A08003B
:1001A000A40A08002408093C03190800031CD920EC
:1001B0000800A50A0A30A40208002508093C031912
:1001C0000800031CE4200800A60A0A30A502080063
:1001D0008312031386018316C03086008E18FF2811
:1001E0008312302102308600061606123021283094
:1001F00014210C3014210630142180301421831274
:10020000232183168E1483120800A0002C21200EB7
:100210000F39860086160616061220080F3986004A
:100220008616061606120800A0002C21200E0F3993
:10023000860086120616061220080F3986008612DE
:10024000061606120800013014210800803014211F
:100250000800A83014210800A101A10B2D290800D5
:10026000A101A2010330A300A10B3429A20B342960
:10027000A30B342908000130A200A00B3D29A10BDB
:080280003D29A20B3D290800F5
:02400E00313F40
:00000001FF
