:020000040000FA
:020000001228C4
:08000800A500030E8301A60010
:100010001A08A4008000840A8301260E8300A50E1E
:10002000250E09008316FF308700880119309900DA
:1000300004309800831280309800880183168C1653
:100040008312C0308B0000301816A401A70129309C
:10005000840004082F3C031D2928293084006E20C9
:10006000A920AC2020308B2020308B2020308B200A
:1000700020308B2056308B2061308B206C308B20D1
:1000800075308B2065308B2020308B2052308B20B8
:1000900058308B2020308B20AF200008840A8B2022
:1000A0000008840A8B200008840A8B200008840A38
:1000B0008B200008840A8B200008840A8B202030C3
:1000C0008B2020308B2020308B2020308B20203044
:1000D0008B2020308B2029308400292883120313A1
:1000E00086018316C03086008E1885288312B620BC
:1000F0000230860006160612B62028309A200C30F0
:100100009A2006309A2080309A208312A9208316E4
:100110008E1483120800A000B220200E0F39860032
:1001200086160616061220080F3986008616061651
:1001300006120800A000B220200E0F398600861299
:100140000616061220080F398600861206160612B9
:10015000080001309A20080080309A200800A8305A
:100160009A200800A101A10BB3280800A101A20157
:100170000330A300A10BBA28A20BBA28A30BBA28FC
:02018000080075
:02400E00313F40
:00000001FF
