:020000040000FA
:100000008316FF309F00880185010516851683122F
:100010008801A301A001A101A201051E1320851ED4
:100020001B2037200D28851AA30A05080319232051
:100030002B2088000800051AA303050803192320B4
:100040002B208800080088013720881737200508F2
:10005000031D08002328230882073F3406345B343D
:100060004F3466346D347D3407347F346F3403305D
:10007000A200A00B3928A10B3928A20B39280800AF
:00000001FF
